:1007A500543A0054483A00202048696768200020E0
:1007B500202021212121212100204E6F726D616CA5
:0B07C500002020202020202020200009
:10039F00E4FF1207498F17D3E517648094FD5009C6
:1003AF00C3E51764809449500375171E1209977F90
:1003BF00E87E0312094D12090A1209627BFF7A07C0
:1003CF0079A57D017F011208247BFF7A0779A87D2B
:1003DF00017F021208241209E38F18E4FFFEFDFCCF
:1003EF00AB16AA15A914A8131201B4501E7B2D7DAC
:1003FF00037F011209C6AF16AE15AD14AC1312026E
:10040F002D8F1C8E1B8D1A8C19801585161C85152A
:10041F001B85141A8513197B2B7D037F011209C6C7
:10042F00E4FFFE7DC87C42AB1CAA1BA91AA81912B7
:10043F00000E12027CEF5464FFE4F5118F12AF1C13
:10044F00AE1BAD1AAC1912027CAB07AA06752303BB
:10045F007D047F011208837B2E7D077F011209C661
:10046F00752302AB12AA117D087F01120883E518CC
:10047F00603DB4010E0517D3E517648094FD40036A
:10048F0075177DE518B4020E1517C3E51764809430
:10049F004950037517C9E518B4030CE517FD3395DB
:1004AF00E0FCE4FF1207D0E518B40403751001E572
:1004BF0017FB3395E0FA7523037D047F0212063292
:1004CF00AC17EC120248AB16AA15A914A813120107
:1004DF00B4602B4029E51070257BFF7A0779AC7D3E
:1004EF000A7F011208247BFF7A0779B47D087F0207
:1004FF00120824751D01D29053A0E00203E5AC173A
:10050F00EC120248AB16AA15A914A8131201B46075
:10051F002D402BE510640170257BFF7A0779AC7DA8
:10052F000A7F011208247BFF7A0779B47D087F02C6
:10053F00120824E4F51DD29043A01F0203E57BFFB0
:10054F007A0779BE7D0A7F011208247BFF7A07792B
:10055F00C67D087F02120824E4F51DC29043A01F38
:03056F000203E59F
:03000B0002057279
:10057200C0E0C0F0C083C082C0D075D000C000C04F
:0D05820001C002C003C004C005C006C007D0
:10058F00758A66758CFC0509E50970020508050B6F
:10059F00E50B7002050A050DE50D7002050CE5105F
:1005AF006008050FE50F7002050EC3E5099414E509
:1005BF0008940040097508007509001206A5C3E5E7
:1005CF000B940AE50A94004014750A00750B00128B
:1005DF0009971207798F168E158D148C13C3E50D9D
:1005EF009432E50C9400400C750C00750D00E51D60
:1005FF006002B2A5C3E50F9410E50E94274009756C
:08060F000E00750F00751000CC
:10061700D007D006D005D004D003D002D001D00037
:0B062700D0D0D082D083D0F0D0E032E1
:10094D00EF1FAC0670011E4C600A7D027CC7DCFEF9
:04095D00DDFC80EC51
:010961002273
:0D0997001208BD7FCC1208F17F440208F168
:100779001208BD7FCC1208F17FBE1208F11208A041
:100789008F1E1208A0EFFEE51EFFFDAC06EC12025B
:0B07990043E4FBFA798078411201175D
:0107A4002232
:06098800C2A58F80D2A77A
:08098E007F027EC7DEFEDFFCE4
:01099600223E
:0A09BC00C2A6120988C2A702098E24
:10084700CFCDCFCECCCE12033C7C007D0A12033C29
:04085700ED2430FF5D
:0A085B00D2A6120988C2A702098E76
:10092100AE07BE0104ED148006BE0209ED243F446A
:0609310080FF1209BC2248
:100962007F381209BC7F0C1209BC7F061209BC7FBA
:04097200010209BCB9
:0A09C600AC03120921AF0402085B24
:060824008B1F8A208921D0
:10082A00120921E4FDAB1FAA20A9218D827583003C
:0C083A001202FDFF600612085B0D80E951
:01084600228F
:0C0716007F0AEA24FFFDE434FFFC7E00B3
:080722008E268F278C288D29FB
:10072A007F017E00E4FBEBC39529E5286480F87419
:0E073A008098500AAC26AD2712032A0B80E8E7
:01074800228E
:040883008A218B2219
:10088700120921AA23EAD39400400D120716AC21BE
:08089700AD221208471A80EDA2
:01089F002236
:10063200120921C3EA64809480400B7F2B12085B6D
:100642008A248B25800E7F2D12085BC3E49BF5253F
:10065200E49AF524AA23EAD39400400D120716ACBB
:0906620024AD251208471A80EDB1
:01066B00226C
:04066C008A2C8B2D1C
:10067000120921AA2EEAD3940040297F10120718EC
:10068000AC2CAD2DCFCDCFCECCCE12033CEF540F42
:10069000FEC3940AEE5004243080022437FF12086F
:0406A0005B1A80D190
:0106A4002233
:0406DE008A318B32A0
:1006E200120921AA33EAD394004028EA24FFFDE448
:1006F20034FFFC7F027E00120722AC31AD32CFCD37
:10070200CFCECCCE12033CEF54012430FF12085B53
:030712001A80D278
:0107150022C1
:1008BD00D2B7C2B77FE3DFFED2B77F1EDFFEA2B78E
:0908CD00E433FE7FE3DFFEAF0619
:0108D60022FF
:10097600C2B77E04DEFEEF24FF92B77E19DEFED2FA
:01098600B7B9
:01098700224D
:1008D700C2B77F01DFFED2B77F03DFFEA2B7E433E3
:0908E700FE7F19DFFED2B7AF0657
:0108F00022E5
:0208F100AD0751
:1008F300E4FC7401A804088002C333D8FC5DFF1232
:0609030009760CBC08ECB3
:0109090022CB
:1008A000E4FDFC1208D7EF600D7401A80408800273
:0C08B000C333D8FC42050CBC08E9AF05BE
:0108BC002219
:10090A005389F0438901758A66758CFCC28DD28C35
:07091A00D2A9D2AFC2B9223D
:1007D0008F1F8C208D211209DA7FA01207FB1209CE
:1007E000A4AF1F1207FB1209A4AF211207FB1209C5
:0B07F000A41200037F057E0002094DEB
:020749008F1F00
:10074B001209DA7FA01207FB1209A4AF1F1207FBD5
:10075B001209A41209DA7FA11207FB1209A41208CD
:0D076B00658F207F011209D0120003AF201E
:01077800225E
:0909DA00D2A0D2A1C2A0C2A12248
:07000300C2A0D2A1D2A0228D
:0207FB00AD0748
:1007FD00E4FB74807E00A803088006CEA2E713CE2A
:10080D0013D8F8FFEDF582EF558224FF92A0D2A107
:06081D00C2A10BBB08DCC8
:0108230022B2
:10086500E4FFD2A0FED2A130A00D7480A8060880B6
:0D08750002C313D8FC4207C2A10EBE08E862
:010882002253
:0A09D000EF24FF92A0D2A1C2A122E1
:0B09A400D2A0D2A1A2A0E433FFC2A1A8
:0109AF002225
:0509E300E4AF36F5361B
:0109E80022EC
:10093700E4FF20B1010F20B0027F0220B2027F0343
:0509470020B3027F0453
:01094C002288
:1006A5008534351209378F34E535B40107E53470E3
:1006B50003753601E535B40207E534700375360276
:1006C500E535B40307E5347003753603E535B40441
:0806D50007E5347003753604DB
:0106DD0022FA
:10000E00EC4D6011E8497017ED33EC3304600DE4EC
:10001E00FCFFFEFD22E933E8330470F80202E81219
:10002E0002B358046009E4CC24815006285009021A
:10003E0002F22840030202EFC0E0EB4A7044B9809E
:10004E0006D0E0FB0202DEEF4E701CBD8008EBFF17
:10005E00EAFEE9FD80EBE98DF0A4FEE5F00200F783
:10006E00E9CDF9EAFEEBFFEF89F0A4FCE5F0CE89CD
:10007E00F0A42EFFE435F0CD89F0A42DFEE435F08A
:10008E008067EF4E7005BD80D780C3EF8BF0A4ACB8
:10009E00F0EE8BF0A42CFCE435F0F8EF8AF0A42CF3
:1000AE00E5F038FCE433CB8DF0A42CFCE5F03BF806
:1000BE00EE8AF0A42CFCE5F038F8E433CF89F0A4F6
:1000CE002CFCE5F038CF3400CE89F0A42FFFE5F0FC
:1000DE003EFEE433C98DF0A42EFEE5F039CD8AF054
:1000EE00A42FFFE5F03EFEE43DFD33D0E0FB5007CC
:1000FE000BBB000F0202F2EC2CFCEF33FFEE33FED3
:06010E00ED33FD0202CA00
:100114000202F2EC5D046005E8590470030202E88F
:100124001202B3580460F6EC4860F2EC7004FDFE71
:10013400FF22C860DB2481C85009C39860025006BE
:100144000202EF9850CAF582E9294B4A7005AB8246
:100154000202DE75F0007C1A7880C3EF9BEE9AED04
:1001640099400DC3EF9BFFEE9AFEED99FDE842F036
:10017400DC23ACF0D0E0FFD0E0FED0E0FDAB822089
:10018400E7101BEB60BAEC2CFCEF33FFEE33FEED13
:1001940033FD0202CAE803F830E705C0F075F00049
:1001A400EF2FFFEE33FEED33FD40B830E7C280AAF7
:1001B40074F8CC6480CCC86480C8F58204604FC3F2
:1001C400EB9FF5F0EA9E42F0E99D42F0E89C45F091
:1001D400603C501DE5825FFFE582D313CB5BCBF41B
:1001E4002B5582FB50280ABA002409B90020088044
:1001F4001DE5825BFBE582D313CF5FCFF4C3132FDE
:100204005582FF50090EBE00050DBD00010CC3EB65
:100214009FF5F0EA9E42F0E99D42F0E89C45F060CB
:0902240007CC4820E701B3EC22ED
:10022D00ED33EC33600A047003BD8004ECB2E7FCDF
:01023D00229E
:10023E0075F020800E75F010800575F0087D007E3B
:10024E00007F003392D530D503120391EC3340106A
:10025E00EF33FFEE33FEED33FDEC33FCD5F0ED2244
:0E026E00E5F0247EA2D513CC92E7CDCEFF2280
:10027C00EDD2E7CD33EC3392D524814006E4FFFE7A
:10028C00FDFC22FCE4CFCECDCC24E0501174FF80D9
:10029C00EDC3CC13CCCD13CDCE13CECF13CF047076
:0702AC00F030D5DE020391E2
:1002B300E9D2E7C933E833F892D5EDD2E7CD33EC91
:0702C30033FC5002B2D5220A
:1002CA00EC30E7100FBF000C0EBE00080DBD000495
:1002DA000BEB6014A2D5EB13FCED92E7FD2274FF41
:1002EA00FCFDFEFF22E480F8A2D574FF13FC7D809A
:0302FA00E480EFAE
:030000000209B042
:0C09B000787FE4F6D8FD75813602039FC5
:1002FD00BB010CE58229F582E5833AF583E02250B6
:10030D0006E92582F8E622BBFE06E92582F8E222FF
:0D031D00E58229F582E5833AF583E4932219
:10032A00EF8DF0A4A8F0CF8CF0A428CE8DF0A42EE7
:02033A00FE22A1
:10033C00BC000BBE0029EF8DF084FFADF022E4CCA5
:10034C00F875F008EF2FFFEE33FEEC33FCEE9DEC6E
:10035C00984005FCEE9DFE0FD5F0E9E4CEFD22EDB4
:10036C00F8F5F0EE8420D21CFEADF075F008EF2FFE
:10037C00FFED33FD4007985006D5F0F222C398FDEF
:05038C000FD5F0EA228C
:0E039100C3E49FFFE49EFEE49DFDE49CFC227D
:00000001FF
